:100000000C9433000C9450000C9450000C9450004D
:100010000C9450000C9450000C9450000C94500020
:100020000C9450000C9450000C94FF000C94500061
:100030000C9450000C9450000C9450000C94500000
:100040000C9450000C9450000C9450000C945000F0
:100050000C94500058015B01610169017101740148
:100060007D018A019B0111241FBECFE5D8E0DEBFD0
:10007000CDBF10E0A0E6B0E0ECE5F7E002C00590EF
:100080000D92AC37B107D9F720E0ACE7B0E001C082
:100090001D92AA3BB207E1F70E9467020C94AC03E1
:1000A0000C9400008F3F2FEF920731F0009739F446
:1000B0002EE620937C00089580E090E008958FEF75
:1000C0009FEF08958091A8009091A9008330910539
:1000D000B1F028F40097B1F0019751F01AC08530C3
:1000E000910581F0B0F410927E0085E090E00CC0A4
:1000F00080917F00882389F083E090E005C084E050
:1001000090E002C081E090E09093A9008093A80065
:1001100004C01092A9001092A8008091A8009091AC
:10012000A900009719F0039749F0089510927E00F6
:100130006BE670E08AEA90E00C94A50310926000F0
:1001400080917C00E0E0AE2FB0E0A655BF4F8C93CD
:10015000EF5FE031C0F3E093A600F0E0E655FF4F1B
:10016000108281E080937E00089521E030E0062E29
:1001700001C0220F0A94EAF7442311F0282B02C091
:1001800020952823822F089521E030E0062E01C01B
:10019000220F0A94EAF78223089560936100709316
:1001A000620080936300909364006093800070937A
:1001B0008100809382009093830008958BE083BF39
:1001C0008DE78CBF82E089BF12BE80916100909163
:1001D0006200A0916300B0916400809380009093CE
:1001E0008100A0938200B09383008FB780688FBF97
:1001F000089513BE089581E08093840008951F92AE
:100200000F920FB60F9211248F939F93AF93BF93CA
:100210008091800090918100A0918200B091830034
:100220000197A109B1098093800090938100A09368
:100230008200B0938300892B8A2B8B2B99F481E069
:10024000809384008091610090916200A09163008E
:10025000B09164008093800090938100A09382000D
:10026000B0938300BF91AF919F918F910F900FBE7C
:100270000F901F901895C39882BBC49A0895C49894
:100280000895C39A82BBC49A0895C4980895803192
:1002900010F4805801C081550C943B01CF938930F4
:1002A000910508F06BC0FC01E65DFF4F0C949F03C5
:1002B0001092A70068C08091A7008A3008F06BC038
:1002C00062C00E943F018FE00E943B0183E090E00A
:1002D00067C00E943F0181E00E943B0184E090E002
:1002E0005FC00E943F0133C080917E00882379F176
:1002F00010927F001092A70030C00E943F018091B1
:1003000060008823E9F0E091A700F0E0E655FF4F98
:10031000808118C0C091A700C03250F48091600065
:10032000882331F00E944501CF5FC093A70015C01C
:100330000E94450120C080917E00882341F01BC0AF
:100340008091AA000E94410187E090E029C081E0ED
:1003500080937F0085E090E023C080916000882337
:1003600019F08091A70002C080917D000E94470192
:1003700086E090E015C088E090E012C010927F0007
:1003800080E090E00DC08091A7008F5F8093A70070
:1003900081E090E005C088E30E943B0182E090E0AC
:1003A000CF91089521E030E002C0220F331F8A95DB
:1003B000E2F78BB390E082239323892BD1F31DBC0A
:1003C0001CBC82E08EBD8BB390E082239323892BEB
:1003D000D1F788E08EBD8CB59DB56AE370E00E94D0
:1003E0006903CB0108959BBD8ABD80E188BF1DBC18
:1003F0001CBC8AE08EBD089508B604FEFDCF88E0DF
:100400008EBD0895CF93DF939BB3C1E0D0E001C0D0
:10041000CC0F8A95EAF79C2B9BBB81E090E00E9471
:10042000F3010E94FC018BB3C095C823CBBBDF91C5
:10043000CF910895CF93DF93882349F0813061F005
:100440008230B9F4C6E0D0E082E090E009C0C4E0B8
:10045000D0E080E090E004C0C5E0D0E081E090E032
:100460000E940202CE010E94D201BC0180E090E015
:1004700003C06FEF7FEFCB01DF91CF9108950F9312
:100480001F93CF93DF93B62FA72FF82FE92F890162
:10049000D42FC52F6B2F7A2F8F2F9E2F98014D2F82
:1004A0005C2F0E947D03611571058105910539F06E
:1004B000B02FA12FFE018B01D82FC92FEBCFB80190
:1004C0008D2F9C2FDF91CF911F910F910895CF9386
:1004D000DF9300D000D000D0CDB7DEB78FEF87BB61
:1004E00081BB1ABA8BBB80EF84BB8FE085BB22E354
:1004F000C22ED12CE12CF12C5AE040E030E020E07B
:10050000652F742F832F922F9601A7010E947D03E0
:10051000611571058105910539F05C2D4D2D3E2D3C
:100520002F2D6B017C01ECCF9AE0A92EB12C00E0BD
:1005300010E0B601C7019501A8010E947D03611575
:1005400071058105910529F0650178015B018C0138
:10055000F0CF6AE070E080E090E09501A8010E9491
:100560007D0369017A0162E370E080E090E095012B
:10057000A8010E947D0386E0E5E6F0E0DE01119629
:1005800001900D928A95E1F76FEF60939B00C09206
:100590009C00D0929D00E0929E00F0929F00C0923D
:1005A000A000D092A100E092A200F092A3008EE4FD
:1005B00091E09093A5008093A40060939000209315
:1005C00091003093920040939300509394002093B5
:1005D000950030939600409397005093980082E5E1
:1005E00090E090939A008093990060938500C09268
:1005F0008600D0928700E0928800F0928900C09235
:100600008A00D0928B00E0928C00F0928D0082E6FE
:1006100090E090938F0080938E00A0926100B09242
:1006200062000093630010936400A0928000B09277
:10063000810000938200109383000E94DE00C12C91
:10064000D12C83E0C816D104E8F5F601EE0FFF1FA8
:1006500081E090E08C0F9D1FE80FF91FE080F18092
:10066000D70115964D915D916D917C9118971196DA
:100670008D919D910D90BC91A02D481759076A0747
:100680007B0781F4F70180810184F285E02D9927B1
:1006900087FD90950995D7018C93F70115821682F5
:1006A00017821086F70185819681A781B085019612
:1006B000A11DB11D85839683A783B087FFEFCF1A55
:1006C000DF0ABFCF809184008823E1F31092840079
:1006D000B6CFAA1BBB1B51E107C0AA1FBB1FA617A1
:1006E000B70710F0A61BB70B881F991F5A95A9F7DB
:1006F00080959095BC01CD010895A1E21A2EAA1B08
:10070000BB1BFD010DC0AA1FBB1FEE1FFF1FA217C1
:10071000B307E407F50720F0A21BB30BE40BF50BBE
:10072000661F771F881F991F1A9469F76095709547
:10073000809590959B01AC01BD01CF010895EE0F0E
:10074000FF1F0590F491E02D0994FB01DC0101905D
:0C0750000D920020E1F70895F894FFCF0F
:10075C0001010000009B00900085003132333435DC
:0C076C003637383930313233343536003E
:00000001FF
